:100000000204A00202C402037200220204C4E4FE3D
:10001000EFC4540FB4100040030200E2900023F834
:1000200028287302005302005D02006602006F027E
:10003000007802008102008A02009302009C020004
:10004000A50200AE0200B70200C00200C90200D241
:100050000200DB740C2EF876300E0200E2740C2ED7
:10006000F876310E807C740C2EF876320E80737424
:100070000C2EF876330E806A740C2EF876340E80CF
:1000800061740C2EF876350E8058740C2EF8763686
:100090000E804F740C2EF876370E8046740C2EF8B6
:1000A00076380E803D740C2EF876390E8034740C40
:1000B0002EF876410E802B740C2EF876420E80229C
:1000C000740C2EF876430E8019740C2EF876440EBC
:1000D0008010740C2EF876450E8007740C2EF8767E
:1000E000460EEF540FB4100040030201B39000F429
:1000F000F828287302012402012E02013702014070
:1001000002014902015202015B02016402016D0217
:10011000017602017F02018802019102019A020127
:10012000A30201AC740C2EF876300E0201B3740CED
:100130002EF876310E807C740C2EF876320E807399
:10014000740C2EF876330E806A740C2EF876340E0A
:100150008061740C2EF876350E8058740C2EF8766B
:10016000360E804F740C2EF876370E8046740C2EA7
:10017000F876380E803D740C2EF876390E80347483
:100180000C2EF876410E802B740C2EF876420E80E1
:1001900022740C2EF876430E8019740C2EF87644D7
:1001A0000E8010740C2EF876450E8007740C2EF815
:1001B00076460E740C2EF8E4F6FB7A00790C22EFEA
:1001C00075F06484FEEF75F06484ADF0ED75F00AAF
:1001D00084FCED75F00A84AFF0E4FDEE600D243090
:1001E000FEED240FF8A6060DEC8003EC600A243027
:1001F000FE740F2DF8A6060DEF2430FF740F2DF8B6
:10020000A607EDC3940250090D740F2DF8762080D7
:10021000F10D740F2DF8E4F6FB7A00790F22E53327
:10022000C4540F9004DE93F523E533540F93F52463
:1002300075252DE534C4540F93F526E534540F93FA
:10024000F52775282DE535C4540F93F529E5355468
:100250000F93F52A752B2DE536C4540F93F52CE535
:1002600036540F93F52D7B007A0079237D017F05AD
:1002700012033CC20222EF75F06484FEEF75F06455
:1002800084ADF0ED75F00A84FCED75F00A84AFF0F2
:10029000EE2430FE74082516F8A6060516EC243068
:1002A000FE74082516F8A6060516EF2430FF74081C
:1002B0002516F8A607051674082516F8E4F6FB7A45
:1002C00000790822C0E0C0D075D000C000300029FD
:1002D000E522C3943F500AE522C3942140037521CF
:1002E0000074372521F8A6227522000521E521B4E6
:1002F000210CD2017521008005752200D200D000AA
:10030000D0D0D0E0327F587E0212042C7F08120435
:10031000557FC87E0012042C7F0C1204557FC87EC6
:100320000012042C7F081204557FC87E0012042C92
:100330007F0C1204557FC87E0002042C8B138A1494
:100340008915AE07ED7005EE24808003EE24C0FF12
:10035000120455AB13AA14A9151203FB601305155B
:10036000E5157002051414F91203FBFF12046680F0
:10037000E2221204BD1204871203D81204947BFFF8
:100380007A0479C7E4FDFF12033C7BFF7A0479D835
:100390007D01E4FF12033C3001051203A7C20130C6
:1003A00002F512021E80F07E01E4FD7C0174372EFE
:1003B000F8E6D394074003430780ECC39408500445
:1003C000EFC313FF0E0CBC09E474332DF8A607E449
:1003D000FF0DBD04D6D20222C2B6C2A6C2A7C2B4C5
:1003E0007F381204557F061204557F0C1204557F86
:1003F000011204557F057E0002042CBB0106898290
:100400008A83E0225002E722BBFE02E32289828A2D
:1004100083E49322AE07AC03ED7005EE24808003E5
:10042000EE24C0FF120455AF040204667D737C0005
:10043000ED1D70011C144C70F7EF1F70011E144E5F
:1004400070EA227580FFC2B5D2B6C2B400D2B4E55C
:1004500080547FFF2212047740FBC2B5C2B6D2B4EB
:100460008F8000C2B42212047740FBD2B5C2B6D24C
:10047000B48F8000C2B4227580FFC2B5D2B6C2B4B8
:1004800000D2B4E5803322758902E4F58CF58AD276
:10049000A9D28C227F011204557F057E0002042C14
:1004A000787FE4F6D8FD758157020006EF1F7001D2
:1004B0001E144E70F722EF4480FF020455D288D2FA
:1004C000A8D2AF220522322A2A2A2A2A2A2A2A2A0E
:1004D0002A2A2A2A2A2A2A00436F64653A003031E0
:0E04E0003233343536373839414243444546CD
:00000001FF
