:0300000002183FA4
:0C183F00787FE4F6D8FD75812C02188635
:1000030020202020202020202020202020202020ED
:10001300002020C3F7CCECCAC7B4BABDDAA3A1A3AE
:10002300A1002020BDF1CCECCAC7B4BABDDAA3A1AC
:10003300A3A100B4F3C4EAB3F5D2BBB0DDC4EAC0F4
:10004300B22020002020C3F7CCECD4AACFFCBDDA29
:10005300A3A12020002020D4AACFFCBDDAB5BDC0C7
:10006300B2212020200020202020C3F7CCECB6CBE7
:10007300CEE7202020200020202020BDF1CCECB6AC
:10008300CBCEE720202020002020C3F7CCECC6DF16
:10009300D4C2C6DFC0B2202000C5A3C0C9D6AFC535
:1000A300AEC8B5C7C5CFE0BBE1002020C3F7CCEC99
:1000B300D6D9C7EFBDDA202020200020202020D66B
:1000C300D9C7EFBCD1BDDA2020202000202020207A
:1000D300C3F7CCECD6D8D1F4202020200020202058
:1000E30020BDF1CCECD6D8D1F4BDDA2020002020FD
:1000F3002020C3F7CCECC0B0B0CB202020200020C0
:10010300202020BDF1CCECC0B0B0CB2020202000BB
:1001130020202020C3F7C8D5B4C7D4EE2020202048
:100123000020202020BDF1C8D5B4C7D4EE20202064
:1001330020002020C3F7CCECD0EDF6A6C9FAC8D531
:100143002020002020D7A3D0EDF6A6C9FAC8D5BF3A
:10015300ECC0D6002020C3F7CCECB0D6B0D6C9FA99
:10016300C8D52020002020D7A3B0D6B0D6C9FAC85E
:10017300D5BFECC0D6002020C3F7CCECC2E8C2E860
:10018300C9FAC8D52020002020D7A3C2E8C2E8C9F5
:10019300FAC8D5BFECC0D6002020C3F7CCECC1F51C
:1001A300BCD1CEC4C9FAC8D500D7A3C1F5BCD1CE42
:1001B300C4C9FAC8D5BFECC0D600204861707079B5
:1001C300206E6577207965617221002020C3F7CC0A
:1001D300ECC7E9C8CBBDDAC1CB2020002020BDF19C
:1001E300CCECCAC7C7E9C8CBBDDA20200020202049
:1001F300332E38B8BEC5AEBDDA2020202000202023
:10020300C3F7CCECCAC7D6B2CAF7BDDA20200020A8
:10021300202020D6B2CAF7BDDA20202020202000DB
:10022300C3F7CCECCFFBB7D1D5DFC8A8D2E6C8D58E
:10023300002020CFFBB7D1D5DFC8A8D2E6C8D52090
:100243002000D3DEC8CBBDDA2020D0A1D0C4C9CFD3
:10025300B5B10020202020B8B4BBEEBDDA202020A9
:10026300202020002020C0CDB6AFBDDA2020B7C5A6
:10027300BCD920200020202020C7E0C4EABDDA201A
:100283002020202020002020CAC0BDE7BAECCAAE3F
:10029300D7D6C8D52020002020B9FABCCABBA4CA2F
:1002A300BFBDDA2020202000BDFCC8D5D7A2D2E2F2
:1002B300C4B8C7D7BDDA2020002020C3F7CCECB6E2
:1002C300F9CDAFBDDA2020202000D4C2D4C2B6F9C4
:1002D300CDAFBDDABFECC0D62120002020CAC0BDFF
:1002E300E7BBB7BEB3C8D52020202000BDFCC8D5CE
:1002F300D7A2D2E2B8B8C7D7BDDA202000CFE3B87F
:10030300DBBBD8B9E9BCC7C4EEC8D5202000202088
:10031300B0CBD2BBBDA8BEFCBDDA2020202000BFDD
:10032300B9D5BDCAA4C0FBBCC7C4EEC8D520200044
:100333002020C3F7CCECBDCCCAA6BDDA20202020F8
:10034300002020D6D0B9FABDCCCAA6BDDA20202021
:100353002000BEC5D2BBB0CBCAC2B1E4BCCDC4EE93
:100363002020002020B9FABCCAB0AED1C0C8D52025
:10037300202020002020CAC0BDE7C2C3D3CEC8D5E9
:1003830020202020002020D6D0B9FAB9FAC7ECBD2E
:10039300DA202020200020202020C1AABACFB9FAD9
:1003A300C8D520202020002020C3F7CDEDC6BDB046
:1003B300B2D2B920202020002020BDF1CDEDC6BD52
:1003C300B0B2D2B920202020002020BDF1CCECCA4D
:1003D300A5B5AEBDDA202020200020202020C3F7C1
:1003E300C8D5D4AAB5A92020202000A1EFA1EF5F92
:1003F3005FA1F8A1F85F5FC1E8B3BF00A1EEA1F070
:100403005F5FA1F8A1F75F5FD4E7B3BF005F5FA1B0
:10041300F15F5FA1F8A1F85F5FC9CFCEE7005F5F2F
:100423005F5FA1F8A1F1A1F85F5FD6D0CEE7005FCF
:100433005FA1F8A1F85F5FA1F15F5FCFC2CEE700D4
:10044300A1F7A1F85F5FA1F1A1EE5F5FCDEDC9CF89
:1004530000A1F7A1F85F5FA1EFA1EE5F5FD2B9C082
:10046300EF005F5FA1EFA1F8A1F8A1EF5F5FC9EE15
:10047300D2B9003230002020C4EA002D0020200031
:100483002020D4C2002020C8D500C8D500C1F9005F
:10049300CEE500CBC400B6FE00D2BB00D0C7C6DA9F
:1004A300002020CAB1002020B7D600A1E600BCD1AD
:1004B300CEC4B5E7D7D3BBB6D3ADC4E32020202049
:1004C300C1F5BCD1CEC4D6C6D7F72020202020202A
:1004D3002020202020202020202020202020202019
:1004E3002020202020202020202020202020202009
:1004F3002000A1EFB5F7D5FB00B7D6D6D300D0A126
:10050300CAB100C8D5C6DA00D4C2B7DD00C4EAB7A1
:10051300DD00C5A9C0FA323000457363005B2B5D73
:100523000053656C005B2D5D0004AE530A574855BC
:1005330026BD0D26500D954446AAB9056A4D09AD51
:100543004224AEB604AE4A6A4DBE0A4D520D25464C
:100553005D52BA0B544E0D6A43296D37095B4B74D8
:100563009BC10497540A4B485B25BC06A55006D48F
:10057300454ADAB802B64D0957422497B704974A59
:10058300664B3E0D4A510EA54656D4BA05AD4E02F2
:10059300B644393738092E4B7C96BF0C95530D4A18
:1005A300486DA53B0B554F056A454AADB9025D4DF4
:1005B300092D422C95B60A954A7B4ABD06CA510BB2
:1005C3005546555ABB04DA4E0A5B43352BB8052B07
:1005D3004C8A953F0E955206AA487AD53C0AB54FE8
:1005E30004B6454A57390A574D0526423E93350D01
:1005F300954975AABE056A51096D4654AEBB04AD53
:100603004F0A4D434D26B70D254B8D52BF0B545208
:100613000B6A47696D3C095B50049B454A4BB90A19
:100623004B4DAB25C206A55406D4496ADA3D0AB63A
:10063300510937465497BB04974F064B4436A537A9
:100643000EA54A86B2BF05AC530AB6475936BC0954
:100653002E500C96454D4AB80D4A4C0DA54125AA7E
:10066300B6056A497AADBD025D52092D475C95BA5C
:100673000A954E0B4A434B55370AD54A955ABF0440
:10068300BA530A5B48652BBC052B500A9345474A6E
:10069300B906AA4C0AD54124DAB604B64A69573DCD
:1006A3000A4E510D26465E933A0D534D05AA433625
:1006B300B537096D4BB4AEBF04AD530A4D486D2534
:1006C300BC0D254F0D52445DAA380B5A4C056D41A4
:1006D30024ADB6049B4A7A4BBE0A4B510AA5465B2E
:1006E30052BA06D24E0ADA42355B3709374B849742
:1006F300C1049753064B4866A53C0EA54F06B2446A
:100703004AB6380AAE4C092E423C97350C96497DC1
:100713004ABD0D4A510DA54555AABA056A4E0A6D43
:1007230043452EB7052D4B8A95BF0A95530B4A4770
:100733006B553B0AD54F055A454A5D380A5B4C0554
:100743002B423A93B60693497729BD06AA510AD597
:100753004654DABA04B64E0A57434527380D264A9B
:100763008E933E0D52520DAA4766B53B056D4F045D
:10077300AE454A4EB90A4D4C0D15412D92B5001F99
:100783003B5A7897B5D4F301110130014E000303AE
:090793000601040602050003053D
:0B1EFA00C104010E00010F00011800E0
:041E5D007F147E0070
:101E6100EF1F70011E144E600BE4FDEDC3947D5015
:041E7100EF0D80F7FA
:011E7500224A
:101E8E00C2B5D2B6D2B47580FFE58020E7FBC2B4EE
:011E9E002221
:0E1EDE00121E8EC2B5C2B6D2B48F80C2B4221C
:0E1EEC00121E8ED2B5C2B6D2B48F80C2B422FE
:0F1EC0007F30121EDE7F0C121EDE7F01021EDE3F
:061E27007BFF7A047980C4
:101E2D00120A7BFFD39400400C121EEC740129F9A9
:061E3D00E43AFA80EB22FA
:101D6F007BFF7A047976121E2DD200E51DC4540F25
:041D7F002430F524F3
:0C1D8300AF24200003021EDE121EEC2222
:081F0F00C200752401021D83CC
:101C5600C200752480121D837BFF7A007903121E51
:101C66002DC200752490121D837A007903121E2D51
:0F1C7600C200752488121D837A007903021E2D87
:061E9F00B2A37F647E0087
:0B1EA500EF1FAC0670011E4C70F6220F
:101CB200E4FDD2A27F08FE121EA5C2A27F507E00C2
:101CC200121EA5D2A27F0E7E00121EA5A2A2E4338E
:081CD200FD7F147E00021EA537
:101DCE00E4FB7D08C2A2EBC313FBD2A230A20343F5
:0D1DDE0003807F047E00121EA5DDE9AF0327
:011DEB0022D5
:021E4300AD07E9
:101E45007B08C2A2ED1392A27F057E00121EA5D2C9
:071E5500A2EDC313FDDBEB5E
:011E5C002263
:101A2300E4FAFFFDFCF527F526F525F524121CB293
:101A33007FCC121E437F44121E43121CB27FCC1272
:101A43001E437FBE121E43121DCEAA07121DCEAD2A
:101A530007EDFCEAFDE412099FE4FBFA7980783D87
:101A63001208948F278E268D258C24E4FFFE7D207B
:101A73007C41AB27AA26A925A824120894E4FBFAE3
:091A8300F9783F1207A31209D8FB
:011A8C002237
:1019B1007FC1121E1AEF64AA6067E4FD7F8E121EBA
:1019C100CF7D117F8C121ECFE4FD7F8A121ECF7D49
:1019D100057F88121ECF7D297F86121ECF7D197F3C
:1019E10084121ECF7D557F82121ECF7D237F8012F0
:1019F1001ECF7DA57F90121ECF7DAA7FC0121ECF64
:101A0100E4F522E522C3943C5010E52224C2FFE410
:101A1100FD121ECF0522052280E97D807F8E121ED8
:011A2100CFF5
:011A220022A1
:0F1ECF008D23121AE2AF23121AE8C290D2922288
:061AE200C292C290D290F6
:101AE800EFA2E09291D292C292A2E19291D292C2D6
:101AF80092A2E29291D292C292A2E39291D292C21F
:101B080092A2E49291D292C292A2E59291D292C20A
:101B180092A2E69291D292C292A2E79291D292C2F6
:021B2800922207
:101B6E00D291A29192E0D292C292A29192E1D2929D
:101B7E00C292A29192E2D292C292A29192E3D29298
:101B8E00C292A29192E4D292C292A29192E5D29284
:101B9E00C292A29192E6D292C292A29192E7FF22B3
:101E0A007F87121E1A8F127F89121E1A8F177F8DD3
:0C1E1A00E4FE121AE2121B6EC290D2927B
:011E26002299
:101D28007D3C121E9FDDFB7D64B2A37F507E0012B6
:101D38001EA5DDF57D64B2A37F1E7E00121EA5DD03
:031D4800F5D2A32E
:011D4B002275
:101DEC007D32121E9FDDFB7D64B2A37F327E00121A
:0D1DFC001EA5DDF57D32121E9FDDFBD2A37A
:011E090022B6
:0F1EB0007D64B2A37F327E00121EA5DDF5D2A3A2
:011EBF002200
:10109C00121E0A120E59C200752498121D83E510F7
:1010AC00B4120EE516B429097BFF7A007914121ECE
:1010BC002DE510B4120EE516B430097BFF7A0079D9
:1010CC0025121E2DE510B4010EE516B401097BFFA7
:1010DC007A007936121E2DE510B4010EE516B41403
:1010EC00097BFF7A007947121E2DE510B4010EE53D
:1010FC0016B415097BFF7A007958121E2DE510B431
:10110C00050EE516B404097BFF7A007969121E2DD1
:10111C00E510B4050EE516B405097BFF7A00797A63
:10112C00121E2DE510B4070EE516B406097BFF7AE6
:10113C0000798B121E2DE510B4070EE516B40709C5
:10114C007BFF7A00799C121E2DE510B4080EE51673
:10115C00B414097BFF7A0079AD121E2DE510B4088A
:10116C000EE516B415097BFF7A0079BE121E2DE52B
:10117C0010B4090EE516B408097BFF7A0079CF127A
:10118C001E2DE510B4090EE516B409097BFF7A0093
:10119C0079E0121E2DE510B4120EE516B407097B8A
:1011AC00FF7A0079F1121E2DE510B4120EE516B47B
:1011BC0008097BFF7A017902121E2DE510B4120E7C
:1011CC00E516B422097BFF7A017913121E2DE51066
:1011DC00B4120EE516B423097BFF7A017924121E92
:1011EC002DE510B4060EE516B406097BFF7A0179DD
:1011FC0035121E2DE510B4060EE516B407097BFF5B
:10120C007A017946121E2DE510B4090EE516B419B3
:10121C00097BFF7A017957121E2DE510B4090EE5F2
:10122C0016B420097BFF7A017968121E2DE510B4E3
:10123C00100EE516B413097BFF7A017979121E2D75
:10124C00E510B4100EE516B414097BFF7A01798A07
:10125C00121E2DE510B4100EE516B403097BFF7AAF
:10126C0001799B121E2DE510B4100EE516B404097D
:0A127C007BFF7A0179AC121E2D22CF
:100B0900121E0A8F1DC200752498121D83E517B4A1
:100B1900010EE512B401097BFF7A0179BD121E2D80
:100B2900E517B4020EE512B413097BFF7A0179CEF9
:100B3900121E2DE517B4020EE512B414097BFF7AD3
:100B49000179DF121E2DE517B4030EE512B4080969
:100B59007BFF7A0179F0121E2DE517B4030EE51219
:100B6900B411097BFF7A027901121E2DE517B4032E
:100B79000EE512B412097BFF7A027912121E2DE5D5
:100B890017B4030EE512B414097BFF7A0279231214
:100B99001E2DE517B4030EE512B415097BFF7A0281
:100BA9007934121E2DE517B4040EE512B401097B40
:100BB900FF7A027945121E2DE517B4040EE512B429
:100BC90008097BFF7A027956121E2DE517B4050E26
:100BD900E512B401097BFF7A027967121E2DE51728
:100BE900B4050EE512B404097BFF7A027978121E66
:100BF9002DE517B4050EE512B408097BFF7A0279D1
:100C090089121E2DE517B4050EE512B412097BFFF2
:100C19007A02799A121E2DE517B4050EE512B4056C
:100C2900097BFF7A0279AB121E2DE517B4050EE593
:100C390012B406097BFF7A0279AB121E2DE517B4AF
:100C4900050EE512B431097BFF7A0279BC121E2D1B
:100C5900E517B4060EE512B401097BFF7A0279CDD6
:100C6900121E2DE517B4060EE512B405097BFF7AAD
:100C79000279DE121E2DE517B4060EE512B413092A
:100C89007BFF7A0279EF121E2DE517B4060EE512E5
:100C9900B415097BFF7A0279EF121E2DE517B40707
:100CA9000EE512B401097BFF7A037900121E2DE5C6
:100CB90017B4080EE512B401097BFF7A0379111202
:100CC9001E2DE517B4080EE512B415097BFF7A034A
:100CD9007922121E2DE517B4090EE512B409097B14
:100CE900FF7A037933121E2DE517B4090EE512B404
:100CF90010097BFF7A037944121E2DE517B4090EFA
:100D0900E512B418097BFF7A037955121E2DE517F0
:100D1900B4090EE512B420097BFF7A037966121E25
:100D29002DE517B4090EE512B427097BFF7A03797B
:100D390077121E2DE517B4100EE512B401097BFFD9
:100D49007A037988121E2DE517B4100EE512B42422
:100D5900097BFF7A037999121E2DE517B4120EE566
:100D690012B423097BFF7A0379AA121E2DE517B461
:100D7900120EE512B424097BFF7A0379BB121E2DEA
:100D8900E517B4120EE512B425097BFF7A0379CC75
:100D9900121E2DE517B4120EE512B431097BFF7A44
:100DA9000379DD020E55E514C39404400FE514944C
:100DB9000650097BFF7A0379EE121E2DE514C394C0
:100DC90006400FE514940850097BFF7A0379FF1256
:100DD9001E2DE514C39408400FE514941250097BA5
:100DE900FF7A047910121E2DE514B412097BFF7ADB
:100DF900047921121E2DE514C39413400FE51494B0
:100E09001850097BFF7A047932121E2DE514C39418
:100E190018400FE514942250097BFF7A0479431294
:100E29001E2DE514C394224010E514D394235009D0
:100E39007BFF7A047954121E2DE514C39400400FE8
:100E4900E514940450097BFF7A047965121E2D225A
:101DAF007F8D121E1A8F1DC200752480121D831283
:0F1DBF001D6FD200E51D540F2430F524021D8343
:101D8F007F8D121E1A8F1DC200752493121D831290
:101D9F001D6FD200E51D121D7D7A047979021E2D6B
:101C85007F89121E1A8F17C200752482121D837B4D
:101C9500FF7A04797E121E2DD200E517121D7CD223
:0D1CA50000E517121D7D7A04797E021E2DC8
:101CDA007F89121E1A8F17C200752493121D831250
:101CEA001E27D200E517121D7CD200E517121D7DB2
:071CFA007A047983021E2D1C
:101D4C007F87121E1A8F12C200752484121D83D233
:101D5C0000E512121D7CD200E512540F2430F5243C
:031D6C00021D83D2
:101D01007F87121E1A8F12C200752493121D83122F
:101D11001E27D200E512121D7CD200E512121D7D94
:071D21007A047988021E2DEF
:1017AB007F87121E1AAD077F89121E1AAC077F8D19
:1017BB00121E1AC2008F248C258D2612193EAE0BD9
:1017CB00C200752487121D83EE70097BFF7A0479A2
:1017DB008D121E2DBE06097BFF7A047990121E2DE9
:1017EB00BE05097BFF7A047993121E2DBE04097B7B
:1017FB00FF7A047996121E2DBE0310D2007524C8F1
:10180B00121D83D2007524FD121D83BE02097BFFBE
:10181B007A047999121E2DBE01097BFF7A04799CFB
:10182B00121E2DC200752485121D837BFF7A04794D
:04183B009F021E2DBD
:101BAE007F85121E1AEF6514601A7F85121E1A8F1A
:101BBE0014E514D39407400CE51494225006200427
:101BCE0003121D28C200752490121D83D200E51445
:101BDE00121D7CD200E514540F2430F524021D830F
:101B2A007F85121E1AEF6514601A7F85121E1A8F9E
:101B3A0014E514D39407400CE514942250062004AB
:101B4A0003121D28C200752493121D83121E27D268
:101B5A0000E514121D7CD200E514121D7D7A047969
:041B6A00A4021E2D86
:101BEE007F83121E1AEF651560077F83121E1A8FF0
:101BFE0015C200752491121D83D20075243A121D50
:101C0E0083D200E515121D7CD200E515121D7DD282
:071C1E000075243A021D834A
:101C25007F83121E1AEF651560077F83121E1A8FB8
:101C350015C200752493121D83121E27D200E515C7
:101C4500121D7CD200E515121D7D7A0479A9021EAC
:011C55002D61
:10171200E4F522F523FBFDFC7F81121E1AEF651A08
:1017220070030217AA7F81121E1A8F1AC200752433
:1017320093121D83D200E51A121D7CD200E51A1203
:101742001D7D121E76C200752495121D83121A2366
:101752008E228F237C007D64120AA6AB07D200EB97
:10176200121D7FAE22AF237C007D0A120AA6EB7502
:10177200F00AA4FEC3EF9EFDD200121D7FD20075B7
:10178200242E121D83EB75F064A4FEC3E5239EFF95
:10179200ED75F00AA4FEC3EF9EFCD200121D7F7B02
:0817A200FF7A0479AE121E2D3E
:0117AA00221C
:101674007F81121E1A8F1AE51A540FFFBF03047ECE
:101684000180027E00BF01047F0180027F00EF4ED3
:10169400FFE51A540FFEBE05047D0180027D00EDB6
:1016A4004FFFBE07047E0180027E00EE4FFFE51A65
:1016B400540FFEBE09047E0180027E00EE4F6003DB
:1016C40012109CE51A540FFFBF04047E0180027EB1
:1016D40000BF02047F0180027F00EF4EFFE51A5431
:1016E4000FFEBE06047D0180027D00ED4FFFBE08A3
:1016F400047E0180027E00EE4FFFE51A540F700451
:0E1704007E0180027E00EE4F6003120B092270
:101E7600121BEE121BAE121D4C1217AB121C851252
:081E86001DAF121A8D02167443
:091F06007BFF7A0479B1021E2D63
:101286008F22C20075249B121D837BFF7A0479F599
:10129600121E2DE522B404197A0479FC121E2D754E
:1012A6001C8275113BE4F50C121C251218CB121C7E
:1012B60025E522B4031B7BFF7A057901121E2D75E5
:1012C6001C84751117E4F50C121B2A1218CB121B7D
:1012D6002AE5226402600302139F7BFF7A057906E2
:1012E600121E2D751C867F89121E1A8F17E517C4CC
:1012F600540FF509E517540FF50AE50975F00AA428
:10130600250AF5177F8D121E1A8F1DE51DC4540F71
:10131600F509E51D540FF50AE50975F00AA4250A35
:10132600F51DE517B4020CE51D5403600675111C86
:10133600750C01E517B4020CE51D54037006751112
:101346001D750C01E51764016023E5176403601D34
:10135600E51764056017E51764076011E51764086B
:10136600600BE517640A6005E517B40C0675111FD6
:10137600750C01E51764046011E5176406600BE55A
:101386001764096005E517B40B0675111E750C0187
:10139600121D011218CB121D01E522B4011B7BFFA1
:1013A6007A05790B121E2D751C8875110C750C01AA
:1013B600121CDA1218CB121CDAE522701B7BFF7A9C
:1013C600057910121E2D751C8C751163E4F50C122F
:0913D6001D8F1218CB121D8F228D
:1018CB00E51C04FF121E1AEFC4540F75F00AA4FD99
:1018DB00E51C04FF121E1AEF540F2DF50D20B1025B
:1018EB00050D20B302150DD3E5116480F8E50D64E9
:1018FB0080984003850C0DC3E50C6480F8E50D64FE
:10190B008098500385110DE4FD7F8E121ECFE50DDF
:10191B0075F00A120A59C454F0FFE50D75F00A125E
:10192B000A59AEF0EF2EFDAF1C121ECF7D807F8EBD
:03193B00021ECFBA
:06152B00AD2CAC2BAF2833
:10153100EF14B40D00400302167390154975F003C2
:10154100A4C58325F0C583730215700215840215A5
:10155100980215AC0215C00215D40215E80215FC5B
:1015610002161002162402163802164C0216607476
:101571002C2DF58274053CF583E49354087002C365
:1015810022D322742C2DF58274053CF583E4935407
:10159100047002C322D322742C2DF58274053CF50C
:1015A10083E49354027002C322D322742C2DF5825A
:1015B10074053CF583E49354017002C322D3227471
:1015C1002D2DF58274053CF583E49354807002C39C
:1015D10022D322742D2DF58274053CF583E49354B6
:1015E100407002C322D322742D2DF58274053CF57F
:1015F10083E49354207002C322D322742D2DF582EB
:1016010074053CF583E49354107002C322D3227411
:101611002D2DF58274053CF583E49354087002C3C3
:1016210022D322742D2DF58274053CF583E4935465
:10163100047002C322D322742D2DF58274053CF56A
:1016410083E49354027002C322D322742D2DF582B8
:1016510074053CF583E49354017002C322D32274D0
:101661002E2DF58274053CF583E49354807002C3FA
:0216710022D382
:011673002254
:0D0E59008F1DC200851D24851725851226DA
:100E6600E524C4540FFBE524540FFAEB75F00AA4ED
:100E76002AF524E525C4540FFBE525540FFAEB7536
:100E8600F00AA42AF525E526C4540FFBE526540FDF
:100E9600FAEB75F00AA42AF526E524200007246358
:100EA600FFE433800624FFFFE434FFFE7C007D036D
:100EB600120A948E2B8F2C742E252CF582740535F0
:100EC6002BF583E493FE5460FB7805FF088001034D
:100ED600D8FDFBEE541FFABB010514F5278005EA81
:100EE600241EF527E525C3940AE525500B900780B7
:100EF600932526FFE433801525E02476F582E43435
:100F060007F5837401932526FFE4933400CF24FF6D
:100F1600F52AEF34FFF529E525D39402400EE524A2
:100F260054037008052AE52A70020529AF277E00BA
:100F3600C3E52A9FE5299E4079E52A9FF52AE529FA
:100F46009EF52975250175280112152B9201C202FD
:100F56002001047B1D80027B1E742C252CF58274D7
:100F660005352BF583E49354F0FA7804FF088001E5
:100F760003D8FDFAEBFF7E00C3E52A9FE5299E40D4
:100F86002CE52A9FF52AE5299EF5290528E525B5AC
:100F96000209B20220020605258002052512152B3C
:100FA60092012001047B1D80CB7B1E80C7E52A02AF
:100FB600103DC3E527952AF527E5247007752463B8
:100FC600D2008002152474FD252CF52C74FF352BD8
:100FD600F52B75250CFE742C252CF58274053EF533
:100FE60083E49354F0FA7804FF08800103D8FDFAED
:100FF600700575280C800375280DC20212152B92F8
:10100600012001047B1D80027B1EE527D39B402324
:10101600E5279BF52715282002021525E525B502AB
:1010260002B20212152B92012001047B1D80DB7B8C
:101036001E80D7C3EB952704F526A2009203E5246C
:1010460075F00A84FB7804FF08800123D8FDFBE5D0
:101056002475F00A84AAF0EB4AF513E52575F00A23
:1010660084FB7804FF08800123D8FDFBE52575F095
:101076000A84AAF0EB4AF510E52675F00A84FB7897
:1010860004FF08800123D8FDFBE52675F00A84AA33
:05109600F0EB4AF51625
:01109B002232
:10193E00E524C4540FFFE524540FFEEF75F00AA4FE
:10194E002EF524E525C4540FFFE525540FFEEF7543
:10195E00F00AA42EF525E526C4540FFFE526540FF4
:10196E00FEEF75F00AA42EF52620000674642524D9
:10197E00F524E5241313543F252475F00784AEF0A7
:10198E00E5262EFFE52590078F932FFEE5245403C1
:10199E007008E525C3940350011EEE75F00784858B
:0219AE00F00B3C
:0119B0002214
:101A8D00121E0A120E59C200752488121D837BFF87
:101A9D007A057915121E2DD200E513121D7CD20088
:101AAD00E513121D7D7A04797E121E2DD200E510EC
:101ABD00121D7CD200E510121D7D7A04797E121E56
:101ACD002DD200E516121D7CD200E516540F2430E0
:051ADD00F524021D8349
:1013DF00E4F521D2B2D2B1D2B0D2B3D294C2A3D259
:1013EF0097751DFF7517FF7512FF751BFF7514FF9E
:1013FF007515FF751AFF121D281219B1121EC01292
:10140F001F0F121F067F887E13121E61121EC0123D
:10141F001A8D20940E121E5D209405121EB0B297E5
:10142F003094FD20040312171220B074121E5D2099
:10143F00B017300414121EB00521E521C3940640E5
:10144F0003E4F521AF2112128620B05120044E1271
:10145F001DEC121F0F121C56D204C20075248012ED
:10146F001D837BFF7A05791C121E2DC200752490F7
:10147F00121D837A057920121E2DC2007524881241
:10148F001D837A057924121E2DC200752498121D12
:10149F00837A057928121E2DAF2112128630B0FDE6
:1014AF0020B23A121E5D20B20E30040B121DECC298
:1014BF0004E4F521121A8D20B214200411121F0F0B
:1014CF00C200752480121D83121F0630B2FD121F39
:1014DF000F121E76121BEE121A8D30B2FD20B117AD
:1014EF00300414121E5D20B10B300408121EB0AF71
:1014FF002112128630B1FD30B303021421200403F0
:10150F00021421121E5D20B30B300408121EB0AF5F
:0C151F002112128630B30302142180F860
:10079C00020A44E86480F8E933E83360110460F03D
:1007AC00ED33EC337009E8FCE9FDEAFEEBFF2204C3
:1007BC0060DED3EB9FEA9EE99DE8C2E78CF0C2F7BE
:1007CC0095F0400CE8CCF8E9CDF9EACEFAEBCFFB8A
:1007DC00120A0F85D0F05804700320D5B3E80470CA
:1007EC00075002B2D5020A4E92D5EC0460F7E4CC65
:1007FC00C0E0C398F8603B94186008400DD0E0FB53
:10080C00020A26E4FBFAC9FC8028E830E406E4C9B5
:10081C00FBE4CAFCE830E305E4C9CACBFCE85407A6
:10082C006010F8C3E913F9EA13FAEB13FBEC13FCB1
:10083C00D8F130F52FC3E49CFCEF9BFFEE9AFEED54
:10084C0099FDD0E0FBEF4E4D4C701222DB03020AF7
:10085C004BEC2CFCEF33FFEE33FEED33FDED30E7CC
:10086C00EB020A26EF2BFFEE3AFEED39FDD0E0FB52
:10087C0050130BBB0003020A4EED13FDEE13FEEFFB
:08088C0013FFEC13FC020A2625
:10089400EC4D6011E8497017ED33EC3304600DE45E
:1008A400FCFFFEFD22E933E8330470F8020A441227
:1008B4000A0F58046009E4CC248150062850090228
:1008C4000A4E284003020A4BC0E0EB4A7044B98048
:1008D40006D0E0FB020A3AEF4E701CBD8008EBFF25
:1008E400EAFEE9FD80EBE98DF0A4FEE5F002097D66
:1008F400E9CDF9EAFEEBFFEF89F0A4FCE5F0CE893F
:10090400F0A42EFFE435F0CD89F0A42DFEE435F0FB
:100914008067EF4E7005BD80D780C3EF8BF0A4AC29
:10092400F0EE8BF0A42CFCE435F0F8EF8AF0A42C64
:10093400E5F038FCE433CB8DF0A42CFCE5F03BF877
:10094400EE8AF0A42CFCE5F038F8E433CF89F0A467
:100954002CFCE5F038CF3400CE89F0A42FFFE5F06D
:100964003EFEE433C98DF0A42EFEE5F039CD8AF0C5
:10097400A42FFFE5F03EFEE43DFD33D0E0FB50073D
:100984000BBB000F020A4EEC2CFCEF33FFEE33FEE0
:06099400ED33FD020A260E
:10099A0075F020800E75F010800575F0087D007ED8
:1009AA00007F003392D530D503120AFBEC33401096
:1009BA00EF33FFEE33FEED33FDEC33FCD5F0ED22E1
:0E09CA00E5F0247EA2D513CC92E7CDCEFF221D
:1009D800EDD2E7CD33EC3392D524814006E4FFFE17
:1009E800FDFC22FCE4CFCECDCC24E0501174FF8076
:1009F800EDC3CC13CCCD13CDCE13CECF13CF047013
:070A0800F030D5DE020AFB0D
:100A0F00E9D2E7C933E833F892D5EDD2E7CD33EC2D
:070A1F0033FC5002B2D522A6
:100A2600EC30E7100FBF000C0EBE00080DBD000431
:100A36000BEB6014A2D5EB13FCED92E7FD2274FFDD
:100A4600FCFDFEFF22E480F8A2D574FF13FC7D8036
:030A5600E480EF4A
:10184B000213DFE493A3F8E493A34003F68001F2C1
:10185B0008DFF48029E493A3F85407240CC8C3339E
:10186B00C4540F4420C8834004F456800146F6DF6D
:10187B00E4800B0102040810204080901EFAE47EE5
:10188B00019360BCA3FF543F30E509541FFEE49362
:10189B00A360010ECF54C025E060A840B8E493A329
:1018AB00FAE493A3F8E493A3C8C582C8CAC583CA54
:1018BB00F0A3C8C582C8CAC583CADFE9DEE780BE0C
:011F050000DB
:100A5900C2D530F707B2D563F0FF05F030E70CB225
:100A6900D5F4048463F0FF05F080018430D502F4E5
:020A7900042255
:100A7B00BB010689828A83E0225002E722BBFE0279
:090A8B00E32289828A83E49322AC
:100A9400EF8DF0A4A8F0CF8CF0A428CE8DF0A42E76
:020AA400FE2230
:100AA600BC000BBE0029EF8DF084FFADF022E4CC34
:100AB600F875F008EF2FFFEE33FEEC33FCEE9DECFD
:100AC600984005FCEE9DFE0FD5F0E9E4CEFD22ED43
:100AD600F8F5F0EE8420D21CFEADF075F008EF2F8D
:100AE600FFED33FD4007985006D5F0F222C398FD7E
:050AF6000FD5F0EA221B
:0E0AFB00C3E49FFFE49EFEE49DFDE49CFC220C
:00000001FF
