:10013F003F065B4F666D7D077F6F777C395E797108
:010177002265
:06006500C2A77F017E002E
:10006B00D3EF9400EE940040147D787C00ED1D706E
:0D007B00011CED4C70F7EF1F70E61E80E3D6
:010088002255
:10000300EF75F06484FEEF75F06484ADF0ED75F088
:100013000A84FBED75F00A84AAF0D2A6AF06EF902E
:10002300013F93F580C2A67580FFD2A77580FE12AB
:100033000065D2A6AF03EF93F580C2A67580FFD209
:10004300A77580FD120065D2A6AF02EF93F580C2BB
:10005300A67580FFD2A77580FBC2A77F017E000231
:02006300006B30
:10012E00D2A100D2A0120177C2A0120177C2A10003
:01013E00229E
:0D014F00D2A100C2A0120177D2A002017758
:0B0102001200CB12010DAF051200CB64
:0C010D00D2A100C2A0120177C2A1002202
:08016800D2A100D2A002017730
:07017000D2A100D2A0002281
:1000CB00E4FEC2A100EF30E704D2A08002C2A0D2AE
:0D00DB00A100EF25E0FF0EBE08E8C2A10065
:0100E80022F5
:10008900D2A000C2A100E4FED2A10030A003430720
:1000990001EEC394075004EF25E0FFC2A1000EBE94
:0200A90008E667
:0100AB002232
:10011900AD0712012E7F901200CB12010D7F401204
:05012900010202014F7C
:0200AC00AD079E
:1000AE0012012E7F9012010212012E7F911200CBAF
:0C00BE0012010D12008912016812014F9E
:0100CA002213
:1000E900E4F9120170AF01120003AF0112011909FD
:0900F9007F147E0012006B80EC04
:0300000002015C9E
:0C015C00787FE4F6D8FD7581080200E908
:00000001FF
