:1000C6003F065B4F666D7D077F6F777C395E797182
:0900D60000010204081020408022
:10000E00758901758CFC758A67D2A9D28CD2AF7FA7
:10001E000878087410F608DFFC7F08E4FDFCFE305B
:10002E0000FDC2000DED70010CC394F4EC94014080
:10003E00EEE4FCFDFF74082FF8A6060FBF08F60EBF
:0A004E00EED3941040D9E4FE80D5F3
:1000AD00E4FEEF30E704D2A78002C2A7D2A6C2A613
:0800BD00EF25E0FF0EBE08EA8A
:0100C5002218
:10008300E5109000D793F4FF1200AD74082510F823
:10009300E69000C693FF1200ADD2A5C2A50510E5F8
:0A00A30010C394084003E4F5102296
:03000B0002005898
:10005800C0E0C083C082C0D075D000C000C006C058
:1000680007758CFC758A67120083D200D007D0060A
:0B007800D000D0D0D082D083D0E03286
:030000000200DF1C
:0C00DF00787FE4F6D8FD75812002000E49
:00000001FF
